{
  "_format": "hh-sol-artifact-1",
  "contractName": "GameAssets",
  "sourceName": "contracts/GameAssets.sol",
  "abi": [
    {
      "inputs": [],
      "stateMutability": "nonpayable",
      "type": "constructor"
    },
    {
      "anonymous": false,
      "inputs": [
        {
          "indexed": true,
          "internalType": "address",
          "name": "to",
          "type": "address"
        },
        {
          "indexed": true,
          "internalType": "uint256",
          "name": "assetId",
          "type": "uint256"
        },
        {
          "indexed": false,
          "internalType": "string",
          "name": "uri",
          "type": "string"
        }
      ],
      "name": "AssetCreated",
      "type": "event"
    },
    {
      "anonymous": false,
      "inputs": [
        {
          "indexed": true,
          "internalType": "address",
          "name": "from",
          "type": "address"
        },
        {
          "indexed": true,
          "internalType": "address",
          "name": "to",
          "type": "address"
        },
        {
          "indexed": true,
          "internalType": "uint256",
          "name": "assetId",
          "type": "uint256"
        }
      ],
      "name": "AssetTransferred",
      "type": "event"
    },
    {
      "anonymous": false,
      "inputs": [
        {
          "indexed": true,
          "internalType": "address",
          "name": "to",
          "type": "address"
        },
        {
          "indexed": false,
          "internalType": "uint256",
          "name": "amount",
          "type": "uint256"
        }
      ],
      "name": "CurrencyCreated",
      "type": "event"
    },
    {
      "anonymous": false,
      "inputs": [
        {
          "indexed": true,
          "internalType": "address",
          "name": "from",
          "type": "address"
        },
        {
          "indexed": true,
          "internalType": "address",
          "name": "to",
          "type": "address"
        },
        {
          "indexed": false,
          "internalType": "uint256",
          "name": "amount",
          "type": "uint256"
        }
      ],
      "name": "CurrencyTransferred",
      "type": "event"
    },
    {
      "inputs": [
        {
          "internalType": "address",
          "name": "",
          "type": "address"
        }
      ],
      "name": "balances",
      "outputs": [
        {
          "internalType": "uint256",
          "name": "",
          "type": "uint256"
        }
      ],
      "stateMutability": "view",
      "type": "function"
    },
    {
      "inputs": [
        {
          "internalType": "address",
          "name": "to",
          "type": "address"
        },
        {
          "internalType": "string",
          "name": "uri",
          "type": "string"
        }
      ],
      "name": "createAsset",
      "outputs": [
        {
          "internalType": "uint256",
          "name": "",
          "type": "uint256"
        }
      ],
      "stateMutability": "nonpayable",
      "type": "function"
    },
    {
      "inputs": [
        {
          "internalType": "address",
          "name": "to",
          "type": "address"
        },
        {
          "internalType": "uint256",
          "name": "amount",
          "type": "uint256"
        }
      ],
      "name": "createCurrency",
      "outputs": [],
      "stateMutability": "nonpayable",
      "type": "function"
    },
    {
      "inputs": [
        {
          "internalType": "uint256",
          "name": "assetId",
          "type": "uint256"
        }
      ],
      "name": "getAsset",
      "outputs": [
        {
          "internalType": "uint256",
          "name": "",
          "type": "uint256"
        },
        {
          "internalType": "string",
          "name": "",
          "type": "string"
        },
        {
          "internalType": "address",
          "name": "",
          "type": "address"
        }
      ],
      "stateMutability": "view",
      "type": "function"
    },
    {
      "inputs": [
        {
          "internalType": "address",
          "name": "account",
          "type": "address"
        }
      ],
      "name": "getOwnedAssets",
      "outputs": [
        {
          "internalType": "uint256[]",
          "name": "",
          "type": "uint256[]"
        }
      ],
      "stateMutability": "view",
      "type": "function"
    },
    {
      "inputs": [],
      "name": "owner",
      "outputs": [
        {
          "internalType": "address",
          "name": "",
          "type": "address"
        }
      ],
      "stateMutability": "view",
      "type": "function"
    },
    {
      "inputs": [
        {
          "internalType": "address",
          "name": "to",
          "type": "address"
        },
        {
          "internalType": "uint256",
          "name": "assetId",
          "type": "uint256"
        }
      ],
      "name": "transferAsset",
      "outputs": [],
      "stateMutability": "nonpayable",
      "type": "function"
    },
    {
      "inputs": [
        {
          "internalType": "address",
          "name": "to",
          "type": "address"
        },
        {
          "internalType": "uint256",
          "name": "amount",
          "type": "uint256"
        }
      ],
      "name": "transferCurrency",
      "outputs": [],
      "stateMutability": "nonpayable",
      "type": "function"
    }
  ],
  "bytecode": "0x608060405234801561001057600080fd5b5033600460006101000a81548173ffffffffffffffffffffffffffffffffffffffff021916908373ffffffffffffffffffffffffffffffffffffffff1602179055506115b4806100616000396000f3fe608060405234801561001057600080fd5b50600436106100885760003560e01c8063791c07411161005b578063791c0741146101255780638da5cb5b14610155578063e3759abd14610173578063eac8f5b81461018f57610088565b8063144b11d91461008d57806327e235e3146100a95780635c921eb9146100d95780636213e981146100f5575b600080fd5b6100a760048036038101906100a29190610e8e565b6101c1565b005b6100c360048036038101906100be9190610e11565b6102f8565b6040516100d09190611220565b60405180910390f35b6100f360048036038101906100ee9190610e8e565b610310565b005b61010f600480360381019061010a9190610e11565b610587565b60405161011c919061115c565b60405180910390f35b61013f600480360381019061013a9190610e3a565b61061e565b60405161014c9190611220565b60405180910390f35b61015d610849565b60405161016a9190611141565b60405180910390f35b61018d60048036038101906101889190610e8e565b61086f565b005b6101a960048036038101906101a49190610eca565b610a03565b6040516101b89392919061123b565b60405180910390f35b600460009054906101000a900473ffffffffffffffffffffffffffffffffffffffff1673ffffffffffffffffffffffffffffffffffffffff163373ffffffffffffffffffffffffffffffffffffffff1614610251576040517f08c379a0000000000000000000000000000000000000000000000000000000008152600401610248906111a0565b60405180910390fd5b806000808473ffffffffffffffffffffffffffffffffffffffff1673ffffffffffffffffffffffffffffffffffffffff168152602001908152602001600020600082825461029f919061132f565b925050819055508173ffffffffffffffffffffffffffffffffffffffff167f08462ac4767013c1e61f88aea44cf09286c5f12101aa8d4315ecb4b7a25fd9fa826040516102ec9190611220565b60405180910390a25050565b60006020528060005260406000206000915090505481565b33818173ffffffffffffffffffffffffffffffffffffffff166002600083815260200190815260200160002060020160009054906101000a900473ffffffffffffffffffffffffffffffffffffffff1673ffffffffffffffffffffffffffffffffffffffff16146103b6576040517f08c379a00000000000000000000000000000000000000000000000000000000081526004016103ad906111c0565b60405180910390fd5b60006002600085815260200190815260200160002060020160009054906101000a900473ffffffffffffffffffffffffffffffffffffffff1690508473ffffffffffffffffffffffffffffffffffffffff168173ffffffffffffffffffffffffffffffffffffffff161415610460576040517f08c379a000000000000000000000000000000000000000000000000000000000815260040161045790611200565b60405180910390fd5b61046a8185610b39565b846002600086815260200190815260200160002060020160006101000a81548173ffffffffffffffffffffffffffffffffffffffff021916908373ffffffffffffffffffffffffffffffffffffffff160217905550600360008673ffffffffffffffffffffffffffffffffffffffff1673ffffffffffffffffffffffffffffffffffffffff168152602001908152602001600020849080600181540180825580915050600190039060005260206000200160009091909190915055838573ffffffffffffffffffffffffffffffffffffffff168273ffffffffffffffffffffffffffffffffffffffff167f645e52ee0ce5c05d60f4b051028f29630be7001f5d84cba67fe6872db872cff860405160405180910390a45050505050565b6060600360008373ffffffffffffffffffffffffffffffffffffffff1673ffffffffffffffffffffffffffffffffffffffff16815260200190815260200160002080548060200260200160405190810160405280929190818152602001828054801561061257602002820191906000526020600020905b8154815260200190600101908083116105fe575b50505050509050919050565b6000600460009054906101000a900473ffffffffffffffffffffffffffffffffffffffff1673ffffffffffffffffffffffffffffffffffffffff163373ffffffffffffffffffffffffffffffffffffffff16146106b0576040517f08c379a00000000000000000000000000000000000000000000000000000000081526004016106a7906111a0565b60405180910390fd5b600160008154809291906106c390611469565b919050555060006001549050600060405180606001604052808381526020018581526020018673ffffffffffffffffffffffffffffffffffffffff168152509050806002600084815260200190815260200160002060008201518160000155602082015181600101908051906020019061073e929190610cdc565b5060408201518160020160006101000a81548173ffffffffffffffffffffffffffffffffffffffff021916908373ffffffffffffffffffffffffffffffffffffffff160217905550905050600360008673ffffffffffffffffffffffffffffffffffffffff1673ffffffffffffffffffffffffffffffffffffffff168152602001908152602001600020829080600181540180825580915050600190039060005260206000200160009091909190915055818573ffffffffffffffffffffffffffffffffffffffff167f59b2e6618bc86b0b11c508924ed07eea4554c0772580d974c564ab4d446f7eab86604051610836919061117e565b60405180910390a3819250505092915050565b600460009054906101000a900473ffffffffffffffffffffffffffffffffffffffff1681565b806000803373ffffffffffffffffffffffffffffffffffffffff1673ffffffffffffffffffffffffffffffffffffffff1681526020019081526020016000205410156108f0576040517f08c379a00000000000000000000000000000000000000000000000000000000081526004016108e7906111e0565b60405180910390fd5b806000803373ffffffffffffffffffffffffffffffffffffffff1673ffffffffffffffffffffffffffffffffffffffff168152602001908152602001600020600082825461093e9190611385565b92505081905550806000808473ffffffffffffffffffffffffffffffffffffffff1673ffffffffffffffffffffffffffffffffffffffff1681526020019081526020016000206000828254610993919061132f565b925050819055508173ffffffffffffffffffffffffffffffffffffffff163373ffffffffffffffffffffffffffffffffffffffff167ff3638e15b1d00a2e7dfc2018b64ae603d35c8a15497bf4546f5daacdafaa7014836040516109f79190611220565b60405180910390a35050565b600060606000806002600086815260200190815260200160002060405180606001604052908160008201548152602001600182018054610a4290611437565b80601f0160208091040260200160405190810160405280929190818152602001828054610a6e90611437565b8015610abb5780601f10610a9057610100808354040283529160200191610abb565b820191906000526020600020905b815481529060010190602001808311610a9e57829003601f168201915b505050505081526020016002820160009054906101000a900473ffffffffffffffffffffffffffffffffffffffff1673ffffffffffffffffffffffffffffffffffffffff1673ffffffffffffffffffffffffffffffffffffffff16815250509050806000015181602001518260400151935093509350509193909250565b6000600360008473ffffffffffffffffffffffffffffffffffffffff1673ffffffffffffffffffffffffffffffffffffffff168152602001908152602001600020905060005b8180549050811015610cd65782828281548110610bc5577f4e487b7100000000000000000000000000000000000000000000000000000000600052603260045260246000fd5b90600052602060002001541415610cc3578160018380549050610be89190611385565b81548110610c1f577f4e487b7100000000000000000000000000000000000000000000000000000000600052603260045260246000fd5b9060005260206000200154828281548110610c63577f4e487b7100000000000000000000000000000000000000000000000000000000600052603260045260246000fd5b906000526020600020018190555081805480610ca8577f4e487b7100000000000000000000000000000000000000000000000000000000600052603160045260246000fd5b60019003818190600052602060002001600090559055610cd6565b8080610cce90611469565b915050610b7f565b50505050565b828054610ce890611437565b90600052602060002090601f016020900481019282610d0a5760008555610d51565b82601f10610d2357805160ff1916838001178555610d51565b82800160010185558215610d51579182015b82811115610d50578251825591602001919060010190610d35565b5b509050610d5e9190610d62565b5090565b5b80821115610d7b576000816000905550600101610d63565b5090565b6000610d92610d8d846112aa565b611279565b905082815260208101848484011115610daa57600080fd5b610db58482856113f5565b509392505050565b600081359050610dcc81611550565b92915050565b600082601f830112610de357600080fd5b8135610df3848260208601610d7f565b91505092915050565b600081359050610e0b81611567565b92915050565b600060208284031215610e2357600080fd5b6000610e3184828501610dbd565b91505092915050565b60008060408385031215610e4d57600080fd5b6000610e5b85828601610dbd565b925050602083013567ffffffffffffffff811115610e7857600080fd5b610e8485828601610dd2565b9150509250929050565b60008060408385031215610ea157600080fd5b6000610eaf85828601610dbd565b9250506020610ec085828601610dfc565b9150509250929050565b600060208284031215610edc57600080fd5b6000610eea84828501610dfc565b91505092915050565b6000610eff8383611123565b60208301905092915050565b610f14816113b9565b82525050565b6000610f25826112ea565b610f2f818561130d565b9350610f3a836112da565b8060005b83811015610f6b578151610f528882610ef3565b9750610f5d83611300565b925050600181019050610f3e565b5085935050505092915050565b6000610f83826112f5565b610f8d818561131e565b9350610f9d818560208601611404565b610fa68161153f565b840191505092915050565b6000610fbe60248361131e565b91507f4f6e6c7920746865206f776e65722063616e2063616c6c2074686973206d657460008301527f686f6421000000000000000000000000000000000000000000000000000000006020830152604082019050919050565b600061102460238361131e565b91507f4f6e6c7920746865206f776e65722063616e2063616c6c20746869732061737360008301527f65742100000000000000000000000000000000000000000000000000000000006020830152604082019050919050565b600061108a60148361131e565b91507f496e73756666696369656e742062616c616e63650000000000000000000000006000830152602082019050919050565b60006110ca60238361131e565b91507f43616e6e6f74207472616e7366657220746f207468652073616d65206164647260008301527f65737300000000000000000000000000000000000000000000000000000000006020830152604082019050919050565b61112c816113eb565b82525050565b61113b816113eb565b82525050565b60006020820190506111566000830184610f0b565b92915050565b600060208201905081810360008301526111768184610f1a565b905092915050565b600060208201905081810360008301526111988184610f78565b905092915050565b600060208201905081810360008301526111b981610fb1565b9050919050565b600060208201905081810360008301526111d981611017565b9050919050565b600060208201905081810360008301526111f98161107d565b9050919050565b60006020820190508181036000830152611219816110bd565b9050919050565b60006020820190506112356000830184611132565b92915050565b60006060820190506112506000830186611132565b81810360208301526112628185610f78565b90506112716040830184610f0b565b949350505050565b6000604051905081810181811067ffffffffffffffff821117156112a05761129f611510565b5b8060405250919050565b600067ffffffffffffffff8211156112c5576112c4611510565b5b601f19601f8301169050602081019050919050565b6000819050602082019050919050565b600081519050919050565b600081519050919050565b6000602082019050919050565b600082825260208201905092915050565b600082825260208201905092915050565b600061133a826113eb565b9150611345836113eb565b9250827fffffffffffffffffffffffffffffffffffffffffffffffffffffffffffffffff0382111561137a576113796114b2565b5b828201905092915050565b6000611390826113eb565b915061139b836113eb565b9250828210156113ae576113ad6114b2565b5b828203905092915050565b60006113c4826113cb565b9050919050565b600073ffffffffffffffffffffffffffffffffffffffff82169050919050565b6000819050919050565b82818337600083830152505050565b60005b83811015611422578082015181840152602081019050611407565b83811115611431576000848401525b50505050565b6000600282049050600182168061144f57607f821691505b60208210811415611463576114626114e1565b5b50919050565b6000611474826113eb565b91507fffffffffffffffffffffffffffffffffffffffffffffffffffffffffffffffff8214156114a7576114a66114b2565b5b600182019050919050565b7f4e487b7100000000000000000000000000000000000000000000000000000000600052601160045260246000fd5b7f4e487b7100000000000000000000000000000000000000000000000000000000600052602260045260246000fd5b7f4e487b7100000000000000000000000000000000000000000000000000000000600052604160045260246000fd5b6000601f19601f8301169050919050565b611559816113b9565b811461156457600080fd5b50565b611570816113eb565b811461157b57600080fd5b5056fea264697066735822122028383160c4e2642f362b91a43d86e1d2304370102be62b5cd799671fec12702e64736f6c63430008000033",
  "linkReferences": {},
  "deployedLinkReferences": {}
}